:03000000020E5D90
:0C0E5D00787FE4F6D8FD758119020800CA
:100E120050617373776F72642D00436F72726563F2
:100E22007400496E636F72726563740031323334D9
:010E320000BF
:060DBE00D2B17F017E00AE
:100DC400E4FDFCC3ED9FEE6480F8EC64809850145D
:100DD400E4FBFA0BBB00010AEBF44A70F60DBD000C
:040DE400010C80DF9F
:010DE80022E8
:0C0E3300120E697FC87E00120DC47F06FD
:0A0E3F008FA0C2B0120DBEC2B12296
:0A0E69008FA0D2B0120DBEC2B1225C
:060DE9007BFF7A0E791277
:100DEF008B178A188919AB17AA18A919120BE8FFC4
:100DFF006010120E6974012519F519E43518F518EC
:030E0F0080E4225A
:100E49007F01120E3F7F38120E3F7F0E120E3F7F39
:040E590080020E3FC6
:1008000078087C007D007BFF7A0E792E7E007F05C4
:10081000120BC2E4F512F513F51475150075160DDB
:10082000120E49120DE9E4F511C3E5139404E51223
:10083000648094804003020A9A7590FEE590B4EEBD
:1008400021AB14AA15A91685138285128374371259
:100850000C017F37120E330513E5137002051202E7
:1008600008CFE590B4DE20AB14AA15A91685138233
:100870008512837438120C017F38120E330513E58C
:1008800013704C05128048E590B4BE20AB14AA1535
:10089000A9168513828512837439120C017F3912CF
:1008A0000E330513E513702705128023E590B47EFF
:1008B0001EAB14AA15A916851382851283742F12F4
:1008C0000C017F2F120E330513E51370020512750C
:1008D00090FDE590B4ED21AB14AA15A916851382FD
:1008E0008512837434120C017F34120E330513E524
:1008F0001370280512020965E590B4DD20AB14AA37
:1009000015A9168513828512837435120C017F3563
:10091000120E330513E513700205128048E590B4FA
:10092000BD20AB14AA15A9168513828512837436CF
:10093000120C017F36120E330513E51370270512D2
:100940008023E590B47D1EAB14AA15A916851382E9
:10095000851283742A120C017F2A120E330513E5C7
:1009600013700205127590FBE590B4EB21AB14AA4D
:1009700015A9168513828512837431120C017F31FB
:10098000120E330513E513702805120209FBE590DA
:10099000B4DB20AB14AA15A91685138285128374C3
:1009A00032120C017F32120E330513E5137002056B
:1009B000128048E590B4BB20AB14AA15A916851384
:1009C000828512837433120C017F33120E330513A8
:1009D000E513702705128023E590B47B1EAB14AAA3
:1009E00015A916851382851283742D120C017F2D93
:1009F000120E330513E513700205127590F7E5909A
:100A0000B4E721AB14AA15A9168513828512837445
:100A100043120C017F43120E330513E513702805B2
:100A200012020829E590B4D721AB14AA15A916859E
:100A300013828512837430120C017F30120E33053D
:100A400013E51370020512020829E590B4B721AB33
:100A500014AA15A916851382851283743D120C0100
:100A60007F3D120E330513E51370020512020829AB
:100A7000E59064776003020829AB14AA15A91685CE
:100A80001382851283742B120C017F2B120E3305F7
:100A900013E51370020512020829E51364044512D8
:100AA000600302082978087C00FDFB7A00790D12AA
:100AB0000DA1EF7FC07010120E3F7BFF7A0E791CE4
:100AC000120DEFD2B2800E120E3F7BFF7A0E792408
:100AD000120DEFC2B2C2B37F647E00120DC4E4F502
:100AE00012F5137F01120E3F7F80120E3F120DE9A7
:020AF00080A8DC
:100AF200E709F608DFFA8046E709F208DFFA803EE6
:100B020088828C83E709F0A3DFFA8032E309F608D2
:100B1200DFFA8078E309F208DFFA807088828C833A
:100B2200E309F0A3DFFA806489828A83E0A3F608EE
:100B3200DFFA805889828A83E0A3F208DFFA804CC8
:100B420080D280FA80C680D4806980F2803380109F
:100B520080A680EA809A80A880DA80E280CA803308
:100B620089828A83ECFAE493A3C8C582C8CCC58380
:100B7200CCF0A3C8C582C8CCC583CCDFE9DEE78050
:100B82000D89828A83E493A3F608DFF9ECFAA9F0CF
:100B9200EDFB2289828A83ECFAE0A3C8C582C8CC25
:100BA200C583CCF0A3C8C582C8CCC583CCDFEADE3E
:100BB200E880DB89828A83E493A3F208DFF980CCA0
:100BC20088F0EF60010E4E60C388F0ED2402B40499
:100BD2000050B9F582EB2402B4040050AF23234540
:060BE2008223900B427318
:100BE800BB010689828A83E0225002E722BBFE020B
:090BF800E32289828A83E493223E
:100C0100F8BB010DE58229F582E5833AF583E8F029
:100C1100225006E92582C8F622BBFE05E92582C8D5
:020C2100F222BD
:100C2300E3F5F009E208B5F06D606B80F3E3F5F0EE
:100C330009E608B5F060605E80F387F009E608B561
:100C4300F054605280F487F009E208B5F04860463A
:100C530080F488828C8387F009E0A3B5F03860368E
:100C630080F488828C8387F009E493A3B5F027602E
:100C73002580F388828C83E3F5F009E0A3B5F016B1
:100C8300601480F388828C83E3F5F009E493A3B5C1
:100C9300F004600280F2020D4E808580E7808E8032
:100CA300D2803C8015806C807E809B80B5808B8059
:100CB300A1804F8070803A020D5A89828A83ECFAB0
:100CC300E493F5F0A3C8C582C8CCC583CCE493A351
:100CD300C8C582C8CCC583CCB5F070606E80E1898D
:100CE300828A83E493F5F0A3E208B5F05E605C804A
:100CF300F289828A83E0F5F0A3E608B5F04D604BF4
:100D030080F389828A83E0F5F0A3E208B5F03C60C2
:100D13003A80F389828A83E493F5F0A3E608B5F079
:100D23002A602880F2805389828A83ECFAE493F55F
:100D3300F0A3C8C582C8CCC583CCE0A3C8C582C80C
:100D4300CCC583CCB5F004600280E27FFFB5F0022E
:100D53000F2240027F012289828A83ECFAE0F5F0B8
:100D6300A3C8C582C8CCC583CCE0A3C8C582C8CC00
:100D7300C583CCB5F0D560D380E389828A83ECFA4E
:100D8300E0F5F0A3C8C582C8CCC583CCE493A3C85F
:100D9300C582C8CCC583CCB5F0B160AF80E288F022
:100DA300ED2402B4040050A3F582EB2402B4040042
:0B0DB30050992323458223900C9C7371
:00000001FF
